{
  "_format": "hh-sol-artifact-1",
  "contractName": "BondFactory",
  "sourceName": "contracts/BondFactory.sol",
  "abi": [
    {
      "inputs": [
        {
          "internalType": "contract IERC20",
          "name": "_daiInstance",
          "type": "address"
        }
      ],
      "stateMutability": "nonpayable",
      "type": "constructor"
    },
    {
      "anonymous": false,
      "inputs": [
        {
          "indexed": false,
          "internalType": "string",
          "name": "_message",
          "type": "string"
        }
      ],
      "name": "BondStateChange",
      "type": "event"
    },
    {
      "anonymous": false,
      "inputs": [
        {
          "indexed": false,
          "internalType": "uint256",
          "name": "_bondId",
          "type": "uint256"
        }
      ],
      "name": "IssueBond",
      "type": "event"
    },
    {
      "anonymous": false,
      "inputs": [
        {
          "indexed": false,
          "internalType": "uint256",
          "name": "_bondId",
          "type": "uint256"
        },
        {
          "indexed": false,
          "internalType": "address",
          "name": "_subscriber",
          "type": "address"
        },
        {
          "indexed": false,
          "internalType": "uint256",
          "name": "_subscriptionValue",
          "type": "uint256"
        }
      ],
      "name": "SubscribedToBond",
      "type": "event"
    },
    {
      "anonymous": false,
      "inputs": [
        {
          "indexed": false,
          "internalType": "uint256",
          "name": "_subscription",
          "type": "uint256"
        }
      ],
      "name": "SubscriptionChange",
      "type": "event"
    },
    {
      "anonymous": false,
      "inputs": [
        {
          "indexed": false,
          "internalType": "uint256",
          "name": "_bondId",
          "type": "uint256"
        },
        {
          "indexed": false,
          "internalType": "address",
          "name": "_subscriber",
          "type": "address"
        },
        {
          "indexed": false,
          "internalType": "uint256",
          "name": "_amount",
          "type": "uint256"
        }
      ],
      "name": "Withdrawal",
      "type": "event"
    },
    {
      "inputs": [
        {
          "internalType": "uint256",
          "name": "",
          "type": "uint256"
        }
      ],
      "name": "bonds",
      "outputs": [
        {
          "internalType": "contract BondWallet",
          "name": "",
          "type": "address"
        }
      ],
      "stateMutability": "view",
      "type": "function"
    },
    {
      "inputs": [
        {
          "internalType": "uint256",
          "name": "_bondId",
          "type": "uint256"
        },
        {
          "internalType": "uint256",
          "name": "_amount",
          "type": "uint256"
        }
      ],
      "name": "changeMaxSubscription",
      "outputs": [
        {
          "internalType": "uint256",
          "name": "",
          "type": "uint256"
        }
      ],
      "stateMutability": "nonpayable",
      "type": "function"
    },
    {
      "inputs": [
        {
          "internalType": "uint256",
          "name": "_bondId",
          "type": "uint256"
        }
      ],
      "name": "closeBond",
      "outputs": [],
      "stateMutability": "nonpayable",
      "type": "function"
    },
    {
      "inputs": [
        {
          "internalType": "uint256",
          "name": "_bondId",
          "type": "uint256"
        }
      ],
      "name": "deleteBond",
      "outputs": [],
      "stateMutability": "nonpayable",
      "type": "function"
    },
    {
      "inputs": [],
      "name": "depositToFactory",
      "outputs": [],
      "stateMutability": "payable",
      "type": "function"
    },
    {
      "inputs": [
        {
          "internalType": "uint256",
          "name": "_bondId",
          "type": "uint256"
        }
      ],
      "name": "getBondAddress",
      "outputs": [
        {
          "internalType": "address",
          "name": "",
          "type": "address"
        }
      ],
      "stateMutability": "view",
      "type": "function"
    },
    {
      "inputs": [
        {
          "internalType": "uint256",
          "name": "_rate",
          "type": "uint256"
        },
        {
          "internalType": "uint256",
          "name": "_maxSubscription",
          "type": "uint256"
        }
      ],
      "name": "issueBond",
      "outputs": [
        {
          "internalType": "address",
          "name": "",
          "type": "address"
        }
      ],
      "stateMutability": "nonpayable",
      "type": "function"
    },
    {
      "inputs": [
        {
          "internalType": "uint256",
          "name": "_bondId",
          "type": "uint256"
        }
      ],
      "name": "openBond",
      "outputs": [],
      "stateMutability": "nonpayable",
      "type": "function"
    },
    {
      "inputs": [
        {
          "internalType": "uint256",
          "name": "_bondId",
          "type": "uint256"
        },
        {
          "internalType": "uint256",
          "name": "_subscriptionAmount",
          "type": "uint256"
        }
      ],
      "name": "subscribeToBond",
      "outputs": [],
      "stateMutability": "payable",
      "type": "function"
    },
    {
      "inputs": [
        {
          "internalType": "uint256",
          "name": "_bondId",
          "type": "uint256"
        },
        {
          "internalType": "uint256",
          "name": "_amount",
          "type": "uint256"
        }
      ],
      "name": "withdraw",
      "outputs": [],
      "stateMutability": "nonpayable",
      "type": "function"
    }
  ],
  "bytecode": "0x608060405260016000553480156200001657600080fd5b50604051620034db380380620034db83398181016040528101906200003c91906200009b565b80600360006101000a81548173ffffffffffffffffffffffffffffffffffffffff021916908373ffffffffffffffffffffffffffffffffffffffff1602179055505062000129565b60008151905062000095816200010f565b92915050565b600060208284031215620000ae57600080fd5b6000620000be8482850162000084565b91505092915050565b6000620000d482620000ef565b9050919050565b6000620000e882620000c7565b9050919050565b600073ffffffffffffffffffffffffffffffffffffffff82169050919050565b6200011a81620000db565b81146200012657600080fd5b50565b6133a280620001396000396000f3fe6080604052600436106200009d5760003560e01c8063441a3e701162000061578063441a3e70146200016e5780634905e92b146200019c5780634a5256f014620001ca5780635f1c17c0146200020e578063f844a31c1462000252576200009d565b8062e123e014620000a25780630fb81eb414620000ae578063143732c114620000dc578063362b437814620000fc57806339b090041462000140575b600080fd5b620000ac62000296565b005b348015620000bb57600080fd5b50620000da6004803603810190620000d491906200119a565b620002e0565b005b620000fa6004803603810190620000f49190620011f2565b620003c2565b005b3480156200010957600080fd5b506200012860048036038101906200012291906200119a565b620008a8565b60405162000137919062001429565b60405180910390f35b3480156200014d57600080fd5b506200016c60048036038101906200016691906200119a565b620008ea565b005b3480156200017b57600080fd5b506200019a6004803603810190620001949190620011f2565b620009cc565b005b348015620001a957600080fd5b50620001c86004803603810190620001c291906200119a565b62000ddd565b005b348015620001d757600080fd5b50620001f66004803603810190620001f09190620011f2565b62000ebf565b6040516200020591906200157c565b60405180910390f35b3480156200021b57600080fd5b506200023a60048036038101906200023491906200119a565b62000fd1565b60405162000249919062001493565b60405180910390f35b3480156200025f57600080fd5b506200027e6004803603810190620002789190620011f2565b62001004565b6040516200028d919062001429565b60405180910390f35b3073ffffffffffffffffffffffffffffffffffffffff166108fc349081150290604051600060405180830381858888f19350505050158015620002dd573d6000803e3d6000fd5b50565b60006001600083815260200190815260200160002060009054906101000a900473ffffffffffffffffffffffffffffffffffffffff1690508073ffffffffffffffffffffffffffffffffffffffff166323cd6b38336040518263ffffffff1660e01b815260040162000353919062001429565b600060405180830381600087803b1580156200036e57600080fd5b505af115801562000383573d6000803e3d6000fd5b505050507f3ba9bedc7f1a47240260164b57e05de406885e491044f32757bf77f6e4bcd879604051620003b690620014d2565b60405180910390a15050565b60006001600084815260200190815260200160002060009054906101000a900473ffffffffffffffffffffffffffffffffffffffff16905060008173ffffffffffffffffffffffffffffffffffffffff166312065fe06040518163ffffffff1660e01b815260040160206040518083038186803b1580156200044357600080fd5b505afa15801562000458573d6000803e3d6000fd5b505050506040513d601f19601f820116820180604052508101906200047e9190620011c6565b905060008273ffffffffffffffffffffffffffffffffffffffff16630d2bc0d56040518163ffffffff1660e01b815260040160206040518083038186803b158015620004c957600080fd5b505afa158015620004de573d6000803e3d6000fd5b505050506040513d601f19601f82011682018060405250810190620005049190620011c6565b905060006002600087815260200190815260200160002060003373ffffffffffffffffffffffffffffffffffffffff1673ffffffffffffffffffffffffffffffffffffffff16815260200190815260200160002060010154905060008473ffffffffffffffffffffffffffffffffffffffff16632c4e722e6040518163ffffffff1660e01b815260040160206040518083038186803b158015620005a757600080fd5b505afa158015620005bc573d6000803e3d6000fd5b505050506040513d601f19601f82011682018060405250810190620005e29190620011c6565b86620005ef919062001671565b905082848762000600919062001614565b1062000635577f4e487b7100000000000000000000000000000000000000000000000000000000600052600160045260246000fd5b60008211156200070257828487846200064f919062001614565b6200065b919062001614565b1062000690577f4e487b7100000000000000000000000000000000000000000000000000000000600052600160045260246000fd5b806002600089815260200190815260200160002060003373ffffffffffffffffffffffffffffffffffffffff1673ffffffffffffffffffffffffffffffffffffffff1681526020019081526020016000206001016000828254620006f5919062001614565b92505081905550620007e9565b600060405180606001604052803373ffffffffffffffffffffffffffffffffffffffff1681526020018381526020016000815250905080600260008a815260200190815260200160002060003373ffffffffffffffffffffffffffffffffffffffff1673ffffffffffffffffffffffffffffffffffffffff16815260200190815260200160002060008201518160000160006101000a81548173ffffffffffffffffffffffffffffffffffffffff021916908373ffffffffffffffffffffffffffffffffffffffff1602179055506020820151816001015560408201518160020155905050505b620007f362000296565b8473ffffffffffffffffffffffffffffffffffffffff166349273b35876040518263ffffffff1660e01b81526004016200082e91906200157c565b600060405180830381600087803b1580156200084957600080fd5b505af11580156200085e573d6000803e3d6000fd5b505050507fc319f03657aadf6e27b8c7f1794ed22e11d146c6e085bd1c20294f9e7b7e36bf8733836040516200089793929190620015c6565b60405180910390a150505050505050565b6000806001600084815260200190815260200160002060009054906101000a900473ffffffffffffffffffffffffffffffffffffffff16905080915050919050565b60006001600083815260200190815260200160002060009054906101000a900473ffffffffffffffffffffffffffffffffffffffff1690508073ffffffffffffffffffffffffffffffffffffffff1663bc16cc2a336040518263ffffffff1660e01b81526004016200095d919062001429565b600060405180830381600087803b1580156200097857600080fd5b505af11580156200098d573d6000803e3d6000fd5b505050507f3ba9bedc7f1a47240260164b57e05de406885e491044f32757bf77f6e4bcd879604051620009c090620014b0565b60405180910390a15050565b60006001600084815260200190815260200160002060009054906101000a900473ffffffffffffffffffffffffffffffffffffffff16905060008173ffffffffffffffffffffffffffffffffffffffff166312065fe06040518163ffffffff1660e01b815260040160206040518083038186803b15801562000a4d57600080fd5b505afa15801562000a62573d6000803e3d6000fd5b505050506040513d601f19601f8201168201806040525081019062000a889190620011c6565b90503373ffffffffffffffffffffffffffffffffffffffff168273ffffffffffffffffffffffffffffffffffffffff16638da5cb5b6040518163ffffffff1660e01b815260040160206040518083038186803b15801562000ae857600080fd5b505afa15801562000afd573d6000803e3d6000fd5b505050506040513d601f19601f8201168201806040525081019062000b2391906200116e565b73ffffffffffffffffffffffffffffffffffffffff16141562000c7e573373ffffffffffffffffffffffffffffffffffffffff168273ffffffffffffffffffffffffffffffffffffffff16638da5cb5b6040518163ffffffff1660e01b815260040160206040518083038186803b15801562000b9e57600080fd5b505afa15801562000bb3573d6000803e3d6000fd5b505050506040513d601f19601f8201168201806040525081019062000bd991906200116e565b73ffffffffffffffffffffffffffffffffffffffff161462000c32576040517f08c379a000000000000000000000000000000000000000000000000000000000815260040162000c299062001538565b60405180910390fd5b8083111562000c78576040517f08c379a000000000000000000000000000000000000000000000000000000000815260040162000c6f9062001516565b60405180910390fd5b62000d2a565b60006002600086815260200190815260200160002060003373ffffffffffffffffffffffffffffffffffffffff1673ffffffffffffffffffffffffffffffffffffffff16815260200190815260200160002060020154905060008111801562000ce657508381115b62000d28576040517f08c379a000000000000000000000000000000000000000000000000000000000815260040162000d1f90620014f4565b60405180910390fd5b505b8173ffffffffffffffffffffffffffffffffffffffff1662f714ce84336040518363ffffffff1660e01b815260040162000d6692919062001599565b600060405180830381600087803b15801562000d8157600080fd5b505af115801562000d96573d6000803e3d6000fd5b505050507f37e8063b72a944a76de602f32b82fd8c2a1c6f99564c727ffaf913c7762cd42084338560405162000dcf93929190620015c6565b60405180910390a150505050565b60006001600083815260200190815260200160002060009054906101000a900473ffffffffffffffffffffffffffffffffffffffff1690508073ffffffffffffffffffffffffffffffffffffffff1663a646fbf5336040518263ffffffff1660e01b815260040162000e50919062001429565b600060405180830381600087803b15801562000e6b57600080fd5b505af115801562000e80573d6000803e3d6000fd5b505050507f3ba9bedc7f1a47240260164b57e05de406885e491044f32757bf77f6e4bcd87960405162000eb3906200155a565b60405180910390a15050565b6000806001600085815260200190815260200160002060009054906101000a900473ffffffffffffffffffffffffffffffffffffffff16905060008173ffffffffffffffffffffffffffffffffffffffff1663b8133f2b856040518263ffffffff1660e01b815260040162000f3591906200157c565b602060405180830381600087803b15801562000f5057600080fd5b505af115801562000f65573d6000803e3d6000fd5b505050506040513d601f19601f8201168201806040525081019062000f8b9190620011c6565b90507f0250ca2d9a116472a32f3be80c49bbbbe86adbef025ea4c5c993f96f1ed10ce28160405162000fbe91906200157c565b60405180910390a1809250505092915050565b60016020528060005260406000206000915054906101000a900473ffffffffffffffffffffffffffffffffffffffff1681565b600080338385600360009054906101000a900473ffffffffffffffffffffffffffffffffffffffff166040516200103b906200111b565b6200104a949392919062001446565b604051809103906000f08015801562001067573d6000803e3d6000fd5b50905080600160008054815260200190815260200160002060006101000a81548173ffffffffffffffffffffffffffffffffffffffff021916908373ffffffffffffffffffffffffffffffffffffffff160217905550600080815480929190620010d19062001774565b91905055507f64dd414f1d8c679be6e269cebd3371989ce80cb727eb35da6b3b46cf5b98878d6000546040516200110991906200157c565b60405180910390a18091505092915050565b611b47806200182683390190565b6000815190506200113a81620017f1565b92915050565b60008135905062001151816200180b565b92915050565b60008151905062001168816200180b565b92915050565b6000602082840312156200118157600080fd5b6000620011918482850162001129565b91505092915050565b600060208284031215620011ad57600080fd5b6000620011bd8482850162001140565b91505092915050565b600060208284031215620011d957600080fd5b6000620011e98482850162001157565b91505092915050565b600080604083850312156200120657600080fd5b6000620012168582860162001140565b9250506020620012298582860162001140565b9150509250929050565b6200123e81620016d2565b82525050565b6200124f8162001724565b82525050565b62001260816200174c565b82525050565b60006200127560078362001603565b91507f44656c65746564000000000000000000000000000000000000000000000000006000830152602082019050919050565b6000620012b760068362001603565b91507f436c6f73656400000000000000000000000000000000000000000000000000006000830152602082019050919050565b6000620012f9601f8362001603565b91507f596f752068617665206e6f2062616c616e636520746f207769746864726177006000830152602082019050919050565b60006200133b60238362001603565b91507f596f752061726520747279696e6720746f20776974686472617720746f6f206d60008301527f75636800000000000000000000000000000000000000000000000000000000006020830152604082019050919050565b6000620013a360158362001603565b91507f596f7520617265206e6f7420746865206f776e657200000000000000000000006000830152602082019050919050565b6000620013e560068362001603565b91507f4f70656e656400000000000000000000000000000000000000000000000000006000830152602082019050919050565b62001423816200171a565b82525050565b600060208201905062001440600083018462001233565b92915050565b60006080820190506200145d600083018762001233565b6200146c602083018662001418565b6200147b604083018562001418565b6200148a606083018462001255565b95945050505050565b6000602082019050620014aa600083018462001244565b92915050565b60006020820190508181036000830152620014cb8162001266565b9050919050565b60006020820190508181036000830152620014ed81620012a8565b9050919050565b600060208201905081810360008301526200150f81620012ea565b9050919050565b6000602082019050818103600083015262001531816200132c565b9050919050565b60006020820190508181036000830152620015538162001394565b9050919050565b600060208201905081810360008301526200157581620013d6565b9050919050565b600060208201905062001593600083018462001418565b92915050565b6000604082019050620015b0600083018562001418565b620015bf602083018462001233565b9392505050565b6000606082019050620015dd600083018662001418565b620015ec602083018562001233565b620015fb604083018462001418565b949350505050565b600082825260208201905092915050565b600062001621826200171a565b91506200162e836200171a565b9250827fffffffffffffffffffffffffffffffffffffffffffffffffffffffffffffffff03821115620016665762001665620017c2565b5b828201905092915050565b60006200167e826200171a565b91506200168b836200171a565b9250817fffffffffffffffffffffffffffffffffffffffffffffffffffffffffffffffff0483118215151615620016c757620016c6620017c2565b5b828202905092915050565b6000620016df82620016fa565b9050919050565b6000620016f382620016fa565b9050919050565b600073ffffffffffffffffffffffffffffffffffffffff82169050919050565b6000819050919050565b6000620017318262001738565b9050919050565b60006200174582620016fa565b9050919050565b6000620017598262001760565b9050919050565b60006200176d82620016fa565b9050919050565b600062001781826200171a565b91507fffffffffffffffffffffffffffffffffffffffffffffffffffffffffffffffff821415620017b757620017b6620017c2565b5b600182019050919050565b7f4e487b7100000000000000000000000000000000000000000000000000000000600052601160045260246000fd5b620017fc81620016e6565b81146200180857600080fd5b50565b62001816816200171a565b81146200182257600080fd5b5056fe60806040523480156200001157600080fd5b5060405162001b4738038062001b478339818101604052810190620000379190620001b0565b836000806101000a81548173ffffffffffffffffffffffffffffffffffffffff021916908373ffffffffffffffffffffffffffffffffffffffff16021790555033600160006101000a81548173ffffffffffffffffffffffffffffffffffffffff021916908373ffffffffffffffffffffffffffffffffffffffff160217905550826002819055508160038190555060006004819055506000600560006101000a81548160ff021916908360018111156200011b577f4e487b7100000000000000000000000000000000000000000000000000000000600052602160045260246000fd5b021790555080600560016101000a81548173ffffffffffffffffffffffffffffffffffffffff021916908373ffffffffffffffffffffffffffffffffffffffff16021790555050505050620002bc565b6000815190506200017c816200026e565b92915050565b600081519050620001938162000288565b92915050565b600081519050620001aa81620002a2565b92915050565b60008060008060808587031215620001c757600080fd5b6000620001d7878288016200016b565b9450506020620001ea8782880162000199565b9350506040620001fd8782880162000199565b9250506060620002108782880162000182565b91505092959194509250565b6000620002298262000244565b9050919050565b60006200023d826200021c565b9050919050565b600073ffffffffffffffffffffffffffffffffffffffff82169050919050565b6000819050919050565b62000279816200021c565b81146200028557600080fd5b50565b620002938162000230565b81146200029f57600080fd5b50565b620002ad8162000264565b8114620002b957600080fd5b50565b61187b80620002cc6000396000f3fe60806040526004361061009b5760003560e01c806349273b351161006457806349273b351461017357806374e7493b1461018f5780638da5cb5b146101cc578063a646fbf5146101f7578063b8133f2b14610220578063bc16cc2a1461025d5761009b565b8062f714ce146100a05780630d2bc0d5146100c957806312065fe0146100f457806323cd6b381461011f5780632c4e722e14610148575b600080fd5b3480156100ac57600080fd5b506100c760048036038101906100c29190611348565b610286565b005b3480156100d557600080fd5b506100de61048b565b6040516100eb91906116de565b60405180910390f35b34801561010057600080fd5b50610109610491565b60405161011691906116de565b60405180910390f35b34801561012b57600080fd5b50610146600480360381019061014191906112a4565b61052b565b005b34801561015457600080fd5b5061015d6107be565b60405161016a91906116de565b60405180910390f35b61018d6004803603810190610188919061131f565b6107c4565b005b34801561019b57600080fd5b506101b660048036038101906101b1919061131f565b610a94565b6040516101c391906116de565b60405180910390f35b3480156101d857600080fd5b506101e1610bf8565b6040516101ee91906115a3565b60405180910390f35b34801561020357600080fd5b5061021e600480360381019061021991906112a4565b610c1c565b005b34801561022c57600080fd5b506102476004803603810190610242919061131f565b610ded565b60405161025491906116de565b60405180910390f35b34801561026957600080fd5b50610284600480360381019061027f91906112a4565b610f95565b005b600160009054906101000a900473ffffffffffffffffffffffffffffffffffffffff1673ffffffffffffffffffffffffffffffffffffffff163373ffffffffffffffffffffffffffffffffffffffff1614610316576040517f08c379a000000000000000000000000000000000000000000000000000000000815260040161030d906116be565b60405180910390fd5b60018081111561034f577f4e487b7100000000000000000000000000000000000000000000000000000000600052602160045260246000fd5b600560009054906101000a900460ff166001811115610397577f4e487b7100000000000000000000000000000000000000000000000000000000600052602160045260246000fd5b146103d7576040517f08c379a00000000000000000000000000000000000000000000000000000000081526004016103ce9061169e565b60405180910390fd5b600560019054906101000a900473ffffffffffffffffffffffffffffffffffffffff1673ffffffffffffffffffffffffffffffffffffffff1663a9059cbb82846040518363ffffffff1660e01b81526004016104349291906115f5565b602060405180830381600087803b15801561044e57600080fd5b505af1158015610462573d6000803e3d6000fd5b505050506040513d601f19601f8201168201806040525081019061048691906112f6565b505050565b60025481565b6000600160009054906101000a900473ffffffffffffffffffffffffffffffffffffffff1673ffffffffffffffffffffffffffffffffffffffff163373ffffffffffffffffffffffffffffffffffffffff1614610523576040517f08c379a000000000000000000000000000000000000000000000000000000000815260040161051a906116be565b60405180910390fd5b600454905090565b803073ffffffffffffffffffffffffffffffffffffffff16638da5cb5b6040518163ffffffff1660e01b815260040160206040518083038186803b15801561057257600080fd5b505afa158015610586573d6000803e3d6000fd5b505050506040513d601f19601f820116820180604052508101906105aa91906112cd565b73ffffffffffffffffffffffffffffffffffffffff168173ffffffffffffffffffffffffffffffffffffffff1614610617576040517f08c379a000000000000000000000000000000000000000000000000000000000815260040161060e9061165e565b60405180910390fd5b600160009054906101000a900473ffffffffffffffffffffffffffffffffffffffff1673ffffffffffffffffffffffffffffffffffffffff163373ffffffffffffffffffffffffffffffffffffffff16146106a7576040517f08c379a000000000000000000000000000000000000000000000000000000000815260040161069e906116be565b60405180910390fd5b600060018111156106e1577f4e487b7100000000000000000000000000000000000000000000000000000000600052602160045260246000fd5b600560009054906101000a900460ff166001811115610729577f4e487b7100000000000000000000000000000000000000000000000000000000600052602160045260246000fd5b14610769576040517f08c379a00000000000000000000000000000000000000000000000000000000081526004016107609061167e565b60405180910390fd5b6001600560006101000a81548160ff021916908360018111156107b5577f4e487b7100000000000000000000000000000000000000000000000000000000600052602160045260246000fd5b02179055505050565b60035481565b600160009054906101000a900473ffffffffffffffffffffffffffffffffffffffff1673ffffffffffffffffffffffffffffffffffffffff163373ffffffffffffffffffffffffffffffffffffffff1614610854576040517f08c379a000000000000000000000000000000000000000000000000000000000815260040161084b906116be565b60405180910390fd5b6000600181111561088e577f4e487b7100000000000000000000000000000000000000000000000000000000600052602160045260246000fd5b600560009054906101000a900460ff1660018111156108d6577f4e487b7100000000000000000000000000000000000000000000000000000000600052602160045260246000fd5b14610916576040517f08c379a000000000000000000000000000000000000000000000000000000000815260040161090d9061167e565b60405180910390fd5b600560019054906101000a900473ffffffffffffffffffffffffffffffffffffffff1673ffffffffffffffffffffffffffffffffffffffff1663095ea7b333836040518363ffffffff1660e01b81526004016109739291906115f5565b602060405180830381600087803b15801561098d57600080fd5b505af11580156109a1573d6000803e3d6000fd5b505050506040513d601f19601f820116820180604052508101906109c591906112f6565b50600560019054906101000a900473ffffffffffffffffffffffffffffffffffffffff1673ffffffffffffffffffffffffffffffffffffffff166323b872dd3330846040518463ffffffff1660e01b8152600401610a25939291906115be565b602060405180830381600087803b158015610a3f57600080fd5b505af1158015610a53573d6000803e3d6000fd5b505050506040513d601f19601f82011682018060405250810190610a7791906112f6565b508060046000828254610a8a919061170a565b9250508190555050565b6000600160009054906101000a900473ffffffffffffffffffffffffffffffffffffffff1673ffffffffffffffffffffffffffffffffffffffff163373ffffffffffffffffffffffffffffffffffffffff1614610b26576040517f08c379a0000000000000000000000000000000000000000000000000000000008152600401610b1d906116be565b60405180910390fd5b600180811115610b5f577f4e487b7100000000000000000000000000000000000000000000000000000000600052602160045260246000fd5b600560009054906101000a900460ff166001811115610ba7577f4e487b7100000000000000000000000000000000000000000000000000000000600052602160045260246000fd5b14610be7576040517f08c379a0000000000000000000000000000000000000000000000000000000008152600401610bde9061169e565b60405180910390fd5b816003819055506003549050919050565b60008054906101000a900473ffffffffffffffffffffffffffffffffffffffff1681565b803073ffffffffffffffffffffffffffffffffffffffff16638da5cb5b6040518163ffffffff1660e01b815260040160206040518083038186803b158015610c6357600080fd5b505afa158015610c77573d6000803e3d6000fd5b505050506040513d601f19601f82011682018060405250810190610c9b91906112cd565b73ffffffffffffffffffffffffffffffffffffffff168173ffffffffffffffffffffffffffffffffffffffff1614610d08576040517f08c379a0000000000000000000000000000000000000000000000000000000008152600401610cff9061165e565b60405180910390fd5b600160009054906101000a900473ffffffffffffffffffffffffffffffffffffffff1673ffffffffffffffffffffffffffffffffffffffff163373ffffffffffffffffffffffffffffffffffffffff1614610d98576040517f08c379a0000000000000000000000000000000000000000000000000000000008152600401610d8f906116be565b60405180910390fd5b6000600560006101000a81548160ff02191690836001811115610de4577f4e487b7100000000000000000000000000000000000000000000000000000000600052602160045260246000fd5b02179055505050565b6000600160009054906101000a900473ffffffffffffffffffffffffffffffffffffffff1673ffffffffffffffffffffffffffffffffffffffff163373ffffffffffffffffffffffffffffffffffffffff1614610e7f576040517f08c379a0000000000000000000000000000000000000000000000000000000008152600401610e76906116be565b60405180910390fd5b600180811115610eb8577f4e487b7100000000000000000000000000000000000000000000000000000000600052602160045260246000fd5b600560009054906101000a900460ff166001811115610f00577f4e487b7100000000000000000000000000000000000000000000000000000000600052602160045260246000fd5b14610f40576040517f08c379a0000000000000000000000000000000000000000000000000000000008152600401610f379061169e565b60405180910390fd5b8160045410610f84576040517f08c379a0000000000000000000000000000000000000000000000000000000008152600401610f7b9061163e565b60405180910390fd5b816002819055506002549050919050565b803073ffffffffffffffffffffffffffffffffffffffff16638da5cb5b6040518163ffffffff1660e01b815260040160206040518083038186803b158015610fdc57600080fd5b505afa158015610ff0573d6000803e3d6000fd5b505050506040513d601f19601f8201168201806040525081019061101491906112cd565b73ffffffffffffffffffffffffffffffffffffffff168173ffffffffffffffffffffffffffffffffffffffff1614611081576040517f08c379a00000000000000000000000000000000000000000000000000000000081526004016110789061165e565b60405180910390fd5b600160009054906101000a900473ffffffffffffffffffffffffffffffffffffffff1673ffffffffffffffffffffffffffffffffffffffff163373ffffffffffffffffffffffffffffffffffffffff1614611111576040517f08c379a0000000000000000000000000000000000000000000000000000000008152600401611108906116be565b60405180910390fd5b60018081111561114a577f4e487b7100000000000000000000000000000000000000000000000000000000600052602160045260246000fd5b600560009054906101000a900460ff166001811115611192577f4e487b7100000000000000000000000000000000000000000000000000000000600052602160045260246000fd5b146111d2576040517f08c379a00000000000000000000000000000000000000000000000000000000081526004016111c99061169e565b60405180910390fd5b600060045414611217576040517f08c379a000000000000000000000000000000000000000000000000000000000815260040161120e9061161e565b60405180910390fd5b60008054906101000a900473ffffffffffffffffffffffffffffffffffffffff1673ffffffffffffffffffffffffffffffffffffffff16ff5b60008135905061125f816117e9565b92915050565b60008151905061127481611800565b92915050565b60008151905061128981611817565b92915050565b60008135905061129e8161182e565b92915050565b6000602082840312156112b657600080fd5b60006112c484828501611250565b91505092915050565b6000602082840312156112df57600080fd5b60006112ed84828501611265565b91505092915050565b60006020828403121561130857600080fd5b60006113168482850161127a565b91505092915050565b60006020828403121561133157600080fd5b600061133f8482850161128f565b91505092915050565b6000806040838503121561135b57600080fd5b60006113698582860161128f565b925050602061137a85828601611250565b9150509250929050565b61138d81611772565b82525050565b61139c81611760565b82525050565b60006113af602a836116f9565b91507f596f752063616e6e6f742064656c657465206120626f6e642077697468206d6f60008301527f6e657920696e73696465000000000000000000000000000000000000000000006020830152604082019050919050565b60006114156026836116f9565b91507f596f75206861766520746f6f206d75636820696e207468697320626f6e64206160008301527f6c726561647900000000000000000000000000000000000000000000000000006020830152604082019050919050565b600061147b6015836116f9565b91507f596f7520617265206e6f7420746865206f776e657200000000000000000000006000830152602082019050919050565b60006114bb600e836116f9565b91507f426f6e6420697320636c6f7365640000000000000000000000000000000000006000830152602082019050919050565b60006114fb600c836116f9565b91507f426f6e64206973206f70656e00000000000000000000000000000000000000006000830152602082019050919050565b600061153b6025836116f9565b91507f596f7520617265206e6f742063616c6c696e672066726f6d20626f6e6420666160008301527f63746f72790000000000000000000000000000000000000000000000000000006020830152604082019050919050565b61159d816117b0565b82525050565b60006020820190506115b86000830184611384565b92915050565b60006060820190506115d36000830186611393565b6115e06020830185611393565b6115ed6040830184611594565b949350505050565b600060408201905061160a6000830185611393565b6116176020830184611594565b9392505050565b60006020820190508181036000830152611637816113a2565b9050919050565b6000602082019050818103600083015261165781611408565b9050919050565b600060208201905081810360008301526116778161146e565b9050919050565b60006020820190508181036000830152611697816114ae565b9050919050565b600060208201905081810360008301526116b7816114ee565b9050919050565b600060208201905081810360008301526116d78161152e565b9050919050565b60006020820190506116f36000830184611594565b92915050565b600082825260208201905092915050565b6000611715826117b0565b9150611720836117b0565b9250827fffffffffffffffffffffffffffffffffffffffffffffffffffffffffffffffff03821115611755576117546117ba565b5b828201905092915050565b600061176b82611790565b9050919050565b600061177d82611790565b9050919050565b60008115159050919050565b600073ffffffffffffffffffffffffffffffffffffffff82169050919050565b6000819050919050565b7f4e487b7100000000000000000000000000000000000000000000000000000000600052601160045260246000fd5b6117f281611760565b81146117fd57600080fd5b50565b61180981611772565b811461181457600080fd5b50565b61182081611784565b811461182b57600080fd5b50565b611837816117b0565b811461184257600080fd5b5056fea264697066735822122018a750a1a7078d48f93d23e2637a76c295d0fbd9374af0a072bcad0b10e43dbf64736f6c63430008000033a2646970667358221220d8667fcea6944eff454cdad5dd73dcaad30486a7a54ed60c9b1167f2c6fc90a964736f6c63430008000033",
  "linkReferences": {},
  "deployedLinkReferences": {}
}